{"abi":[{"inputs":[{"internalType":"address","name":"creator","type":"address"},{"internalType":"uint256","name":"minimumHalf","type":"uint256"},{"internalType":"uint256","name":"minimumAll","type":"uint256"}],"stateMutability":"nonpayable","type":"constructor"},{"inputs":[{"internalType":"string","name":"studentNum","type":"string"}],"name":"isFirstbuyer","outputs":[{"internalType":"bool","name":"","type":"bool"}],"stateMutability":"view","type":"function"},{"inputs":[{"internalType":"string","name":"studentNum","type":"string"}],"name":"isSecondbuyer","outputs":[{"internalType":"bool","name":"","type":"bool"}],"stateMutability":"view","type":"function"},{"inputs":[],"name":"manager","outputs":[{"internalType":"address","name":"","type":"address"}],"stateMutability":"view","type":"function"},{"inputs":[],"name":"minimumAllContribution","outputs":[{"internalType":"uint256","name":"","type":"uint256"}],"stateMutability":"view","type":"function"},{"inputs":[],"name":"minimumHalfContribution","outputs":[{"internalType":"uint256","name":"","type":"uint256"}],"stateMutability":"view","type":"function"},{"inputs":[{"internalType":"string","name":"studentNum","type":"string"}],"name":"registerAllBuyer","outputs":[],"stateMutability":"payable","type":"function"},{"inputs":[{"internalType":"string","name":"studentNum","type":"string"}],"name":"registerFirstBuyer","outputs":[],"stateMutability":"payable","type":"function"},{"inputs":[{"internalType":"string","name":"studentNum","type":"string"}],"name":"registerSecondBuyer","outputs":[],"stateMutability":"payable","type":"function"}],"devdoc":{"kind":"dev","methods":{},"version":1},"evm":{"assembly":"    /* \"contract.sol\":63:1737  contract Register {... */\n  mstore(0x40, 0x80)\n    /* \"contract.sol\":401:596  constructor (address creator, uint minimumHalf, uint minimumAll) {... */\n  callvalue\n  dup1\n  iszero\n  tag_1\n  jumpi\n  0x00\n  dup1\n  revert\ntag_1:\n  pop\n  mload(0x40)\n  sub(codesize, bytecodeSize)\n  dup1\n  bytecodeSize\n  dup4\n  codecopy\n  dup2\n  dup2\n  add\n  0x40\n  mstore\n  dup2\n  add\n  swap1\n  tag_2\n  swap2\n  swap1\n  tag_3\n  jump\t// in\ntag_2:\n    /* \"contract.sol\":487:494  creator */\n  dup3\n    /* \"contract.sol\":477:484  manager */\n  0x00\n  dup1\n    /* \"contract.sol\":477:494  manager = creator */\n  0x0100\n  exp\n  dup2\n  sload\n  dup2\n  0xffffffffffffffffffffffffffffffffffffffff\n  mul\n  not\n  and\n  swap1\n  dup4\n  0xffffffffffffffffffffffffffffffffffffffff\n  and\n  mul\n  or\n  swap1\n  sstore\n  pop\n    /* \"contract.sol\":531:542  minimumHalf */\n  dup2\n    /* \"contract.sol\":505:528  minimumHalfContribution */\n  0x01\n    /* \"contract.sol\":505:542  minimumHalfContribution = minimumHalf */\n  dup2\n  swap1\n  sstore\n  pop\n    /* \"contract.sol\":578:588  minimumAll */\n  dup1\n    /* \"contract.sol\":553:575  minimumAllContribution */\n  0x02\n    /* \"contract.sol\":553:588  minimumAllContribution = minimumAll */\n  dup2\n  swap1\n  sstore\n  pop\n    /* \"contract.sol\":401:596  constructor (address creator, uint minimumHalf, uint minimumAll) {... */\n  pop\n  pop\n  pop\n    /* \"contract.sol\":63:1737  contract Register {... */\n  jump(tag_6)\n    /* \"#utility.yul\":88:205   */\ntag_8:\n    /* \"#utility.yul\":197:198   */\n  0x00\n    /* \"#utility.yul\":194:195   */\n  dup1\n    /* \"#utility.yul\":187:199   */\n  revert\n    /* \"#utility.yul\":334:460   */\ntag_10:\n    /* \"#utility.yul\":371:378   */\n  0x00\n    /* \"#utility.yul\":411:453   */\n  0xffffffffffffffffffffffffffffffffffffffff\n    /* \"#utility.yul\":404:409   */\n  dup3\n    /* \"#utility.yul\":400:454   */\n  and\n    /* \"#utility.yul\":389:454   */\n  swap1\n  pop\n    /* \"#utility.yul\":334:460   */\n  swap2\n  swap1\n  pop\n  jump\t// out\n    /* \"#utility.yul\":466:562   */\ntag_11:\n    /* \"#utility.yul\":503:510   */\n  0x00\n    /* \"#utility.yul\":532:556   */\n  tag_23\n    /* \"#utility.yul\":550:555   */\n  dup3\n    /* \"#utility.yul\":532:556   */\n  tag_10\n  jump\t// in\ntag_23:\n    /* \"#utility.yul\":521:556   */\n  swap1\n  pop\n    /* \"#utility.yul\":466:562   */\n  swap2\n  swap1\n  pop\n  jump\t// out\n    /* \"#utility.yul\":568:690   */\ntag_12:\n    /* \"#utility.yul\":641:665   */\n  tag_25\n    /* \"#utility.yul\":659:664   */\n  dup2\n    /* \"#utility.yul\":641:665   */\n  tag_11\n  jump\t// in\ntag_25:\n    /* \"#utility.yul\":634:639   */\n  dup2\n    /* \"#utility.yul\":631:666   */\n  eq\n    /* \"#utility.yul\":621:684   */\n  tag_26\n  jumpi\n    /* \"#utility.yul\":680:681   */\n  0x00\n    /* \"#utility.yul\":677:678   */\n  dup1\n    /* \"#utility.yul\":670:682   */\n  revert\n    /* \"#utility.yul\":621:684   */\ntag_26:\n    /* \"#utility.yul\":568:690   */\n  pop\n  jump\t// out\n    /* \"#utility.yul\":696:839   */\ntag_13:\n    /* \"#utility.yul\":753:758   */\n  0x00\n    /* \"#utility.yul\":784:790   */\n  dup2\n    /* \"#utility.yul\":778:791   */\n  mload\n    /* \"#utility.yul\":769:791   */\n  swap1\n  pop\n    /* \"#utility.yul\":800:833   */\n  tag_28\n    /* \"#utility.yul\":827:832   */\n  dup2\n    /* \"#utility.yul\":800:833   */\n  tag_12\n  jump\t// in\ntag_28:\n    /* \"#utility.yul\":696:839   */\n  swap3\n  swap2\n  pop\n  pop\n  jump\t// out\n    /* \"#utility.yul\":845:922   */\ntag_14:\n    /* \"#utility.yul\":882:889   */\n  0x00\n    /* \"#utility.yul\":911:916   */\n  dup2\n    /* \"#utility.yul\":900:916   */\n  swap1\n  pop\n    /* \"#utility.yul\":845:922   */\n  swap2\n  swap1\n  pop\n  jump\t// out\n    /* \"#utility.yul\":928:1050   */\ntag_15:\n    /* \"#utility.yul\":1001:1025   */\n  tag_31\n    /* \"#utility.yul\":1019:1024   */\n  dup2\n    /* \"#utility.yul\":1001:1025   */\n  tag_14\n  jump\t// in\ntag_31:\n    /* \"#utility.yul\":994:999   */\n  dup2\n    /* \"#utility.yul\":991:1026   */\n  eq\n    /* \"#utility.yul\":981:1044   */\n  tag_32\n  jumpi\n    /* \"#utility.yul\":1040:1041   */\n  0x00\n    /* \"#utility.yul\":1037:1038   */\n  dup1\n    /* \"#utility.yul\":1030:1042   */\n  revert\n    /* \"#utility.yul\":981:1044   */\ntag_32:\n    /* \"#utility.yul\":928:1050   */\n  pop\n  jump\t// out\n    /* \"#utility.yul\":1056:1199   */\ntag_16:\n    /* \"#utility.yul\":1113:1118   */\n  0x00\n    /* \"#utility.yul\":1144:1150   */\n  dup2\n    /* \"#utility.yul\":1138:1151   */\n  mload\n    /* \"#utility.yul\":1129:1151   */\n  swap1\n  pop\n    /* \"#utility.yul\":1160:1193   */\n  tag_34\n    /* \"#utility.yul\":1187:1192   */\n  dup2\n    /* \"#utility.yul\":1160:1193   */\n  tag_15\n  jump\t// in\ntag_34:\n    /* \"#utility.yul\":1056:1199   */\n  swap3\n  swap2\n  pop\n  pop\n  jump\t// out\n    /* \"#utility.yul\":1205:1868   */\ntag_3:\n    /* \"#utility.yul\":1293:1299   */\n  0x00\n    /* \"#utility.yul\":1301:1307   */\n  dup1\n    /* \"#utility.yul\":1309:1315   */\n  0x00\n    /* \"#utility.yul\":1358:1360   */\n  0x60\n    /* \"#utility.yul\":1346:1355   */\n  dup5\n    /* \"#utility.yul\":1337:1344   */\n  dup7\n    /* \"#utility.yul\":1333:1356   */\n  sub\n    /* \"#utility.yul\":1329:1361   */\n  slt\n    /* \"#utility.yul\":1326:1445   */\n  iszero\n  tag_36\n  jumpi\n    /* \"#utility.yul\":1364:1443   */\n  tag_37\n  tag_8\n  jump\t// in\ntag_37:\n    /* \"#utility.yul\":1326:1445   */\ntag_36:\n    /* \"#utility.yul\":1484:1485   */\n  0x00\n    /* \"#utility.yul\":1509:1573   */\n  tag_38\n    /* \"#utility.yul\":1565:1572   */\n  dup7\n    /* \"#utility.yul\":1556:1562   */\n  dup3\n    /* \"#utility.yul\":1545:1554   */\n  dup8\n    /* \"#utility.yul\":1541:1563   */\n  add\n    /* \"#utility.yul\":1509:1573   */\n  tag_13\n  jump\t// in\ntag_38:\n    /* \"#utility.yul\":1499:1573   */\n  swap4\n  pop\n    /* \"#utility.yul\":1455:1583   */\n  pop\n    /* \"#utility.yul\":1622:1624   */\n  0x20\n    /* \"#utility.yul\":1648:1712   */\n  tag_39\n    /* \"#utility.yul\":1704:1711   */\n  dup7\n    /* \"#utility.yul\":1695:1701   */\n  dup3\n    /* \"#utility.yul\":1684:1693   */\n  dup8\n    /* \"#utility.yul\":1680:1702   */\n  add\n    /* \"#utility.yul\":1648:1712   */\n  tag_16\n  jump\t// in\ntag_39:\n    /* \"#utility.yul\":1638:1712   */\n  swap3\n  pop\n    /* \"#utility.yul\":1593:1722   */\n  pop\n    /* \"#utility.yul\":1761:1763   */\n  0x40\n    /* \"#utility.yul\":1787:1851   */\n  tag_40\n    /* \"#utility.yul\":1843:1850   */\n  dup7\n    /* \"#utility.yul\":1834:1840   */\n  dup3\n    /* \"#utility.yul\":1823:1832   */\n  dup8\n    /* \"#utility.yul\":1819:1841   */\n  add\n    /* \"#utility.yul\":1787:1851   */\n  tag_16\n  jump\t// in\ntag_40:\n    /* \"#utility.yul\":1777:1851   */\n  swap2\n  pop\n    /* \"#utility.yul\":1732:1861   */\n  pop\n    /* \"#utility.yul\":1205:1868   */\n  swap3\n  pop\n  swap3\n  pop\n  swap3\n  jump\t// out\n    /* \"contract.sol\":63:1737  contract Register {... */\ntag_6:\n  dataSize(sub_0)\n  dup1\n  dataOffset(sub_0)\n  0x00\n  codecopy\n  0x00\n  return\nstop\n\nsub_0: assembly {\n        /* \"contract.sol\":63:1737  contract Register {... */\n      mstore(0x40, 0x80)\n      jumpi(tag_1, lt(calldatasize, 0x04))\n      shr(0xe0, calldataload(0x00))\n      dup1\n      0x817772df\n      gt\n      tag_10\n      jumpi\n      dup1\n      0x817772df\n      eq\n      tag_6\n      jumpi\n      dup1\n      0x98ebddec\n      eq\n      tag_7\n      jumpi\n      dup1\n      0xa075587c\n      eq\n      tag_8\n      jumpi\n      dup1\n      0xef7cb3bf\n      eq\n      tag_9\n      jumpi\n      jump(tag_1)\n    tag_10:\n      dup1\n      0x1258c99c\n      eq\n      tag_2\n      jumpi\n      dup1\n      0x3cbf0c27\n      eq\n      tag_3\n      jumpi\n      dup1\n      0x481c6a75\n      eq\n      tag_4\n      jumpi\n      dup1\n      0x78a54fb6\n      eq\n      tag_5\n      jumpi\n    tag_1:\n      0x00\n      dup1\n      revert\n        /* \"contract.sol\":1453:1588  function isFirstbuyer(string memory studentNum) public view onlyOwner returns (bool) {... */\n    tag_2:\n      callvalue\n      dup1\n      iszero\n      tag_11\n      jumpi\n      0x00\n      dup1\n      revert\n    tag_11:\n      pop\n      tag_12\n      0x04\n      dup1\n      calldatasize\n      sub\n      dup2\n      add\n      swap1\n      tag_13\n      swap2\n      swap1\n      tag_14\n      jump\t// in\n    tag_13:\n      tag_15\n      jump\t// in\n    tag_12:\n      mload(0x40)\n      tag_16\n      swap2\n      swap1\n      tag_17\n      jump\t// in\n    tag_16:\n      mload(0x40)\n      dup1\n      swap2\n      sub\n      swap1\n      return\n        /* \"contract.sol\":838:1119  function registerSecondBuyer(string memory studentNum) public payable {... */\n    tag_3:\n      tag_18\n      0x04\n      dup1\n      calldatasize\n      sub\n      dup2\n      add\n      swap1\n      tag_19\n      swap2\n      swap1\n      tag_14\n      jump\t// in\n    tag_19:\n      tag_20\n      jump\t// in\n    tag_18:\n      stop\n        /* \"contract.sol\":90:112  address public manager */\n    tag_4:\n      callvalue\n      dup1\n      iszero\n      tag_21\n      jumpi\n      0x00\n      dup1\n      revert\n    tag_21:\n      pop\n      tag_22\n      tag_23\n      jump\t// in\n    tag_22:\n      mload(0x40)\n      tag_24\n      swap2\n      swap1\n      tag_25\n      jump\t// in\n    tag_24:\n      mload(0x40)\n      dup1\n      swap2\n      sub\n      swap1\n      return\n        /* \"contract.sol\":1594:1731  function isSecondbuyer(string memory studentNum) public view onlyOwner returns (bool) {... */\n    tag_5:\n      callvalue\n      dup1\n      iszero\n      tag_26\n      jumpi\n      0x00\n      dup1\n      revert\n    tag_26:\n      pop\n      tag_27\n      0x04\n      dup1\n      calldatasize\n      sub\n      dup2\n      add\n      swap1\n      tag_28\n      swap2\n      swap1\n      tag_14\n      jump\t// in\n    tag_28:\n      tag_29\n      jump\t// in\n    tag_27:\n      mload(0x40)\n      tag_30\n      swap2\n      swap1\n      tag_17\n      jump\t// in\n    tag_30:\n      mload(0x40)\n      dup1\n      swap2\n      sub\n      swap1\n      return\n        /* \"contract.sol\":119:154  uint public minimumHalfContribution */\n    tag_6:\n      callvalue\n      dup1\n      iszero\n      tag_31\n      jumpi\n      0x00\n      dup1\n      revert\n    tag_31:\n      pop\n      tag_32\n      tag_33\n      jump\t// in\n    tag_32:\n      mload(0x40)\n      tag_34\n      swap2\n      swap1\n      tag_35\n      jump\t// in\n    tag_34:\n      mload(0x40)\n      dup1\n      swap2\n      sub\n      swap1\n      return\n        /* \"contract.sol\":1127:1445  function registerAllBuyer(string memory studentNum) public payable {... */\n    tag_7:\n      tag_36\n      0x04\n      dup1\n      calldatasize\n      sub\n      dup2\n      add\n      swap1\n      tag_37\n      swap2\n      swap1\n      tag_14\n      jump\t// in\n    tag_37:\n      tag_38\n      jump\t// in\n    tag_36:\n      stop\n        /* \"contract.sol\":604:830  function registerFirstBuyer(string memory studentNum) public payable {... */\n    tag_8:\n      tag_39\n      0x04\n      dup1\n      calldatasize\n      sub\n      dup2\n      add\n      swap1\n      tag_40\n      swap2\n      swap1\n      tag_14\n      jump\t// in\n    tag_40:\n      tag_41\n      jump\t// in\n    tag_39:\n      stop\n        /* \"contract.sol\":161:195  uint public minimumAllContribution */\n    tag_9:\n      callvalue\n      dup1\n      iszero\n      tag_42\n      jumpi\n      0x00\n      dup1\n      revert\n    tag_42:\n      pop\n      tag_43\n      tag_44\n      jump\t// in\n    tag_43:\n      mload(0x40)\n      tag_45\n      swap2\n      swap1\n      tag_35\n      jump\t// in\n    tag_45:\n      mload(0x40)\n      dup1\n      swap2\n      sub\n      swap1\n      return\n        /* \"contract.sol\":1453:1588  function isFirstbuyer(string memory studentNum) public view onlyOwner returns (bool) {... */\n    tag_15:\n        /* \"contract.sol\":1532:1536  bool */\n      0x00\n        /* \"contract.sol\":365:372  manager */\n      dup1\n      0x00\n      swap1\n      sload\n      swap1\n      0x0100\n      exp\n      swap1\n      div\n      0xffffffffffffffffffffffffffffffffffffffff\n      and\n        /* \"contract.sol\":351:372  msg.sender == manager */\n      0xffffffffffffffffffffffffffffffffffffffff\n      and\n        /* \"contract.sol\":351:361  msg.sender */\n      caller\n        /* \"contract.sol\":351:372  msg.sender == manager */\n      0xffffffffffffffffffffffffffffffffffffffff\n      and\n      eq\n        /* \"contract.sol\":343:373  require(msg.sender == manager) */\n      tag_47\n      jumpi\n      0x00\n      dup1\n      revert\n    tag_47:\n        /* \"contract.sol\":1556:1567  firstBuyers */\n      0x03\n        /* \"contract.sol\":1568:1578  studentNum */\n      dup3\n        /* \"contract.sol\":1556:1579  firstBuyers[studentNum] */\n      mload(0x40)\n      tag_49\n      swap2\n      swap1\n      tag_50\n      jump\t// in\n    tag_49:\n      swap1\n      dup2\n      mstore\n      0x20\n      add\n      mload(0x40)\n      dup1\n      swap2\n      sub\n      swap1\n      keccak256\n      0x00\n      swap1\n      sload\n      swap1\n      0x0100\n      exp\n      swap1\n      div\n      0xff\n      and\n        /* \"contract.sol\":1549:1579  return firstBuyers[studentNum] */\n      swap1\n      pop\n        /* \"contract.sol\":1453:1588  function isFirstbuyer(string memory studentNum) public view onlyOwner returns (bool) {... */\n      swap2\n      swap1\n      pop\n      jump\t// out\n        /* \"contract.sol\":838:1119  function registerSecondBuyer(string memory studentNum) public payable {... */\n    tag_20:\n        /* \"contract.sol\":940:963  minimumHalfContribution */\n      sload(0x01)\n        /* \"contract.sol\":927:936  msg.value */\n      callvalue\n        /* \"contract.sol\":927:963  msg.value >= minimumHalfContribution */\n      lt\n      iszero\n        /* \"contract.sol\":919:964  require(msg.value >= minimumHalfContribution) */\n      tag_52\n      jumpi\n      0x00\n      dup1\n      revert\n    tag_52:\n        /* \"contract.sol\":1011:1015  true */\n      0x01\n        /* \"contract.sol\":983:1015  !firstBuyers[studentNum] == true */\n      iszero\n      iszero\n        /* \"contract.sol\":984:995  firstBuyers */\n      0x03\n        /* \"contract.sol\":996:1006  studentNum */\n      dup3\n        /* \"contract.sol\":984:1007  firstBuyers[studentNum] */\n      mload(0x40)\n      tag_53\n      swap2\n      swap1\n      tag_50\n      jump\t// in\n    tag_53:\n      swap1\n      dup2\n      mstore\n      0x20\n      add\n      mload(0x40)\n      dup1\n      swap2\n      sub\n      swap1\n      keccak256\n      0x00\n      swap1\n      sload\n      swap1\n      0x0100\n      exp\n      swap1\n      div\n      0xff\n      and\n        /* \"contract.sol\":983:1007  !firstBuyers[studentNum] */\n      iszero\n        /* \"contract.sol\":983:1015  !firstBuyers[studentNum] == true */\n      iszero\n      iszero\n      eq\n        /* \"contract.sol\":975:1016  require(!firstBuyers[studentNum] == true) */\n      tag_54\n      jumpi\n      0x00\n      dup1\n      revert\n    tag_54:\n        /* \"contract.sol\":1064:1068  true */\n      0x01\n        /* \"contract.sol\":1035:1068  !secondBuyers[studentNum] == true */\n      iszero\n      iszero\n        /* \"contract.sol\":1036:1048  secondBuyers */\n      0x04\n        /* \"contract.sol\":1049:1059  studentNum */\n      dup3\n        /* \"contract.sol\":1036:1060  secondBuyers[studentNum] */\n      mload(0x40)\n      tag_55\n      swap2\n      swap1\n      tag_50\n      jump\t// in\n    tag_55:\n      swap1\n      dup2\n      mstore\n      0x20\n      add\n      mload(0x40)\n      dup1\n      swap2\n      sub\n      swap1\n      keccak256\n      0x00\n      swap1\n      sload\n      swap1\n      0x0100\n      exp\n      swap1\n      div\n      0xff\n      and\n        /* \"contract.sol\":1035:1060  !secondBuyers[studentNum] */\n      iszero\n        /* \"contract.sol\":1035:1068  !secondBuyers[studentNum] == true */\n      iszero\n      iszero\n      eq\n        /* \"contract.sol\":1027:1069  require(!secondBuyers[studentNum] == true) */\n      tag_56\n      jumpi\n      0x00\n      dup1\n      revert\n    tag_56:\n        /* \"contract.sol\":1107:1111  true */\n      0x01\n        /* \"contract.sol\":1080:1092  secondBuyers */\n      0x04\n        /* \"contract.sol\":1093:1103  studentNum */\n      dup3\n        /* \"contract.sol\":1080:1104  secondBuyers[studentNum] */\n      mload(0x40)\n      tag_57\n      swap2\n      swap1\n      tag_50\n      jump\t// in\n    tag_57:\n      swap1\n      dup2\n      mstore\n      0x20\n      add\n      mload(0x40)\n      dup1\n      swap2\n      sub\n      swap1\n      keccak256\n      0x00\n        /* \"contract.sol\":1080:1111  secondBuyers[studentNum] = true */\n      0x0100\n      exp\n      dup2\n      sload\n      dup2\n      0xff\n      mul\n      not\n      and\n      swap1\n      dup4\n      iszero\n      iszero\n      mul\n      or\n      swap1\n      sstore\n      pop\n        /* \"contract.sol\":838:1119  function registerSecondBuyer(string memory studentNum) public payable {... */\n      pop\n      jump\t// out\n        /* \"contract.sol\":90:112  address public manager */\n    tag_23:\n      0x00\n      dup1\n      sload\n      swap1\n      0x0100\n      exp\n      swap1\n      div\n      0xffffffffffffffffffffffffffffffffffffffff\n      and\n      dup2\n      jump\t// out\n        /* \"contract.sol\":1594:1731  function isSecondbuyer(string memory studentNum) public view onlyOwner returns (bool) {... */\n    tag_29:\n        /* \"contract.sol\":1674:1678  bool */\n      0x00\n        /* \"contract.sol\":365:372  manager */\n      dup1\n      0x00\n      swap1\n      sload\n      swap1\n      0x0100\n      exp\n      swap1\n      div\n      0xffffffffffffffffffffffffffffffffffffffff\n      and\n        /* \"contract.sol\":351:372  msg.sender == manager */\n      0xffffffffffffffffffffffffffffffffffffffff\n      and\n        /* \"contract.sol\":351:361  msg.sender */\n      caller\n        /* \"contract.sol\":351:372  msg.sender == manager */\n      0xffffffffffffffffffffffffffffffffffffffff\n      and\n      eq\n        /* \"contract.sol\":343:373  require(msg.sender == manager) */\n      tag_59\n      jumpi\n      0x00\n      dup1\n      revert\n    tag_59:\n        /* \"contract.sol\":1698:1710  secondBuyers */\n      0x04\n        /* \"contract.sol\":1711:1721  studentNum */\n      dup3\n        /* \"contract.sol\":1698:1722  secondBuyers[studentNum] */\n      mload(0x40)\n      tag_61\n      swap2\n      swap1\n      tag_50\n      jump\t// in\n    tag_61:\n      swap1\n      dup2\n      mstore\n      0x20\n      add\n      mload(0x40)\n      dup1\n      swap2\n      sub\n      swap1\n      keccak256\n      0x00\n      swap1\n      sload\n      swap1\n      0x0100\n      exp\n      swap1\n      div\n      0xff\n      and\n        /* \"contract.sol\":1691:1722  return secondBuyers[studentNum] */\n      swap1\n      pop\n        /* \"contract.sol\":1594:1731  function isSecondbuyer(string memory studentNum) public view onlyOwner returns (bool) {... */\n      swap2\n      swap1\n      pop\n      jump\t// out\n        /* \"contract.sol\":119:154  uint public minimumHalfContribution */\n    tag_33:\n      sload(0x01)\n      dup2\n      jump\t// out\n        /* \"contract.sol\":1127:1445  function registerAllBuyer(string memory studentNum) public payable {... */\n    tag_38:\n        /* \"contract.sol\":1226:1248  minimumAllContribution */\n      sload(0x02)\n        /* \"contract.sol\":1213:1222  msg.value */\n      callvalue\n        /* \"contract.sol\":1213:1248  msg.value >= minimumAllContribution */\n      lt\n      iszero\n        /* \"contract.sol\":1205:1249  require(msg.value >= minimumAllContribution) */\n      tag_63\n      jumpi\n      0x00\n      dup1\n      revert\n    tag_63:\n        /* \"contract.sol\":1296:1300  true */\n      0x01\n        /* \"contract.sol\":1268:1300  !firstBuyers[studentNum] == true */\n      iszero\n      iszero\n        /* \"contract.sol\":1269:1280  firstBuyers */\n      0x03\n        /* \"contract.sol\":1281:1291  studentNum */\n      dup3\n        /* \"contract.sol\":1269:1292  firstBuyers[studentNum] */\n      mload(0x40)\n      tag_64\n      swap2\n      swap1\n      tag_50\n      jump\t// in\n    tag_64:\n      swap1\n      dup2\n      mstore\n      0x20\n      add\n      mload(0x40)\n      dup1\n      swap2\n      sub\n      swap1\n      keccak256\n      0x00\n      swap1\n      sload\n      swap1\n      0x0100\n      exp\n      swap1\n      div\n      0xff\n      and\n        /* \"contract.sol\":1268:1292  !firstBuyers[studentNum] */\n      iszero\n        /* \"contract.sol\":1268:1300  !firstBuyers[studentNum] == true */\n      iszero\n      iszero\n      eq\n        /* \"contract.sol\":1260:1301  require(!firstBuyers[studentNum] == true) */\n      tag_65\n      jumpi\n      0x00\n      dup1\n      revert\n    tag_65:\n        /* \"contract.sol\":1349:1353  true */\n      0x01\n        /* \"contract.sol\":1320:1353  !secondBuyers[studentNum] == true */\n      iszero\n      iszero\n        /* \"contract.sol\":1321:1333  secondBuyers */\n      0x04\n        /* \"contract.sol\":1334:1344  studentNum */\n      dup3\n        /* \"contract.sol\":1321:1345  secondBuyers[studentNum] */\n      mload(0x40)\n      tag_66\n      swap2\n      swap1\n      tag_50\n      jump\t// in\n    tag_66:\n      swap1\n      dup2\n      mstore\n      0x20\n      add\n      mload(0x40)\n      dup1\n      swap2\n      sub\n      swap1\n      keccak256\n      0x00\n      swap1\n      sload\n      swap1\n      0x0100\n      exp\n      swap1\n      div\n      0xff\n      and\n        /* \"contract.sol\":1320:1345  !secondBuyers[studentNum] */\n      iszero\n        /* \"contract.sol\":1320:1353  !secondBuyers[studentNum] == true */\n      iszero\n      iszero\n      eq\n        /* \"contract.sol\":1312:1354  require(!secondBuyers[studentNum] == true) */\n      tag_67\n      jumpi\n      0x00\n      dup1\n      revert\n    tag_67:\n        /* \"contract.sol\":1391:1395  true */\n      0x01\n        /* \"contract.sol\":1365:1376  firstBuyers */\n      0x03\n        /* \"contract.sol\":1377:1387  studentNum */\n      dup3\n        /* \"contract.sol\":1365:1388  firstBuyers[studentNum] */\n      mload(0x40)\n      tag_68\n      swap2\n      swap1\n      tag_50\n      jump\t// in\n    tag_68:\n      swap1\n      dup2\n      mstore\n      0x20\n      add\n      mload(0x40)\n      dup1\n      swap2\n      sub\n      swap1\n      keccak256\n      0x00\n        /* \"contract.sol\":1365:1395  firstBuyers[studentNum] = true */\n      0x0100\n      exp\n      dup2\n      sload\n      dup2\n      0xff\n      mul\n      not\n      and\n      swap1\n      dup4\n      iszero\n      iszero\n      mul\n      or\n      swap1\n      sstore\n      pop\n        /* \"contract.sol\":1433:1437  true */\n      0x01\n        /* \"contract.sol\":1406:1418  secondBuyers */\n      0x04\n        /* \"contract.sol\":1419:1429  studentNum */\n      dup3\n        /* \"contract.sol\":1406:1430  secondBuyers[studentNum] */\n      mload(0x40)\n      tag_69\n      swap2\n      swap1\n      tag_50\n      jump\t// in\n    tag_69:\n      swap1\n      dup2\n      mstore\n      0x20\n      add\n      mload(0x40)\n      dup1\n      swap2\n      sub\n      swap1\n      keccak256\n      0x00\n        /* \"contract.sol\":1406:1437  secondBuyers[studentNum] = true */\n      0x0100\n      exp\n      dup2\n      sload\n      dup2\n      0xff\n      mul\n      not\n      and\n      swap1\n      dup4\n      iszero\n      iszero\n      mul\n      or\n      swap1\n      sstore\n      pop\n        /* \"contract.sol\":1127:1445  function registerAllBuyer(string memory studentNum) public payable {... */\n      pop\n      jump\t// out\n        /* \"contract.sol\":604:830  function registerFirstBuyer(string memory studentNum) public payable {... */\n    tag_41:\n        /* \"contract.sol\":705:728  minimumHalfContribution */\n      sload(0x01)\n        /* \"contract.sol\":692:701  msg.value */\n      callvalue\n        /* \"contract.sol\":692:728  msg.value >= minimumHalfContribution */\n      lt\n      iszero\n        /* \"contract.sol\":684:729  require(msg.value >= minimumHalfContribution) */\n      tag_71\n      jumpi\n      0x00\n      dup1\n      revert\n    tag_71:\n        /* \"contract.sol\":776:780  true */\n      0x01\n        /* \"contract.sol\":748:780  !firstBuyers[studentNum] == true */\n      iszero\n      iszero\n        /* \"contract.sol\":749:760  firstBuyers */\n      0x03\n        /* \"contract.sol\":761:771  studentNum */\n      dup3\n        /* \"contract.sol\":749:772  firstBuyers[studentNum] */\n      mload(0x40)\n      tag_72\n      swap2\n      swap1\n      tag_50\n      jump\t// in\n    tag_72:\n      swap1\n      dup2\n      mstore\n      0x20\n      add\n      mload(0x40)\n      dup1\n      swap2\n      sub\n      swap1\n      keccak256\n      0x00\n      swap1\n      sload\n      swap1\n      0x0100\n      exp\n      swap1\n      div\n      0xff\n      and\n        /* \"contract.sol\":748:772  !firstBuyers[studentNum] */\n      iszero\n        /* \"contract.sol\":748:780  !firstBuyers[studentNum] == true */\n      iszero\n      iszero\n      eq\n        /* \"contract.sol\":740:781  require(!firstBuyers[studentNum] == true) */\n      tag_73\n      jumpi\n      0x00\n      dup1\n      revert\n    tag_73:\n        /* \"contract.sol\":818:822  true */\n      0x01\n        /* \"contract.sol\":792:803  firstBuyers */\n      0x03\n        /* \"contract.sol\":804:814  studentNum */\n      dup3\n        /* \"contract.sol\":792:815  firstBuyers[studentNum] */\n      mload(0x40)\n      tag_74\n      swap2\n      swap1\n      tag_50\n      jump\t// in\n    tag_74:\n      swap1\n      dup2\n      mstore\n      0x20\n      add\n      mload(0x40)\n      dup1\n      swap2\n      sub\n      swap1\n      keccak256\n      0x00\n        /* \"contract.sol\":792:822  firstBuyers[studentNum] = true */\n      0x0100\n      exp\n      dup2\n      sload\n      dup2\n      0xff\n      mul\n      not\n      and\n      swap1\n      dup4\n      iszero\n      iszero\n      mul\n      or\n      swap1\n      sstore\n      pop\n        /* \"contract.sol\":604:830  function registerFirstBuyer(string memory studentNum) public payable {... */\n      pop\n      jump\t// out\n        /* \"contract.sol\":161:195  uint public minimumAllContribution */\n    tag_44:\n      sload(0x02)\n      dup2\n      jump\t// out\n        /* \"#utility.yul\":7:82   */\n    tag_75:\n        /* \"#utility.yul\":40:46   */\n      0x00\n        /* \"#utility.yul\":73:75   */\n      0x40\n        /* \"#utility.yul\":67:76   */\n      mload\n        /* \"#utility.yul\":57:76   */\n      swap1\n      pop\n        /* \"#utility.yul\":7:82   */\n      swap1\n      jump\t// out\n        /* \"#utility.yul\":88:205   */\n    tag_76:\n        /* \"#utility.yul\":197:198   */\n      0x00\n        /* \"#utility.yul\":194:195   */\n      dup1\n        /* \"#utility.yul\":187:199   */\n      revert\n        /* \"#utility.yul\":211:328   */\n    tag_77:\n        /* \"#utility.yul\":320:321   */\n      0x00\n        /* \"#utility.yul\":317:318   */\n      dup1\n        /* \"#utility.yul\":310:322   */\n      revert\n        /* \"#utility.yul\":334:451   */\n    tag_78:\n        /* \"#utility.yul\":443:444   */\n      0x00\n        /* \"#utility.yul\":440:441   */\n      dup1\n        /* \"#utility.yul\":433:445   */\n      revert\n        /* \"#utility.yul\":457:574   */\n    tag_79:\n        /* \"#utility.yul\":566:567   */\n      0x00\n        /* \"#utility.yul\":563:564   */\n      dup1\n        /* \"#utility.yul\":556:568   */\n      revert\n        /* \"#utility.yul\":580:682   */\n    tag_80:\n        /* \"#utility.yul\":621:627   */\n      0x00\n        /* \"#utility.yul\":672:674   */\n      0x1f\n        /* \"#utility.yul\":668:675   */\n      not\n        /* \"#utility.yul\":663:665   */\n      0x1f\n        /* \"#utility.yul\":656:661   */\n      dup4\n        /* \"#utility.yul\":652:666   */\n      add\n        /* \"#utility.yul\":648:676   */\n      and\n        /* \"#utility.yul\":638:676   */\n      swap1\n      pop\n        /* \"#utility.yul\":580:682   */\n      swap2\n      swap1\n      pop\n      jump\t// out\n        /* \"#utility.yul\":688:868   */\n    tag_81:\n        /* \"#utility.yul\":736:813   */\n      0x4e487b7100000000000000000000000000000000000000000000000000000000\n        /* \"#utility.yul\":733:734   */\n      0x00\n        /* \"#utility.yul\":726:814   */\n      mstore\n        /* \"#utility.yul\":833:837   */\n      0x41\n        /* \"#utility.yul\":830:831   */\n      0x04\n        /* \"#utility.yul\":823:838   */\n      mstore\n        /* \"#utility.yul\":857:861   */\n      0x24\n        /* \"#utility.yul\":854:855   */\n      0x00\n        /* \"#utility.yul\":847:862   */\n      revert\n        /* \"#utility.yul\":874:1155   */\n    tag_82:\n        /* \"#utility.yul\":957:984   */\n      tag_108\n        /* \"#utility.yul\":979:983   */\n      dup3\n        /* \"#utility.yul\":957:984   */\n      tag_80\n      jump\t// in\n    tag_108:\n        /* \"#utility.yul\":949:955   */\n      dup2\n        /* \"#utility.yul\":945:985   */\n      add\n        /* \"#utility.yul\":1087:1093   */\n      dup2\n        /* \"#utility.yul\":1075:1085   */\n      dup2\n        /* \"#utility.yul\":1072:1094   */\n      lt\n        /* \"#utility.yul\":1051:1069   */\n      0xffffffffffffffff\n        /* \"#utility.yul\":1039:1049   */\n      dup3\n        /* \"#utility.yul\":1036:1070   */\n      gt\n        /* \"#utility.yul\":1033:1095   */\n      or\n        /* \"#utility.yul\":1030:1118   */\n      iszero\n      tag_109\n      jumpi\n        /* \"#utility.yul\":1098:1116   */\n      tag_110\n      tag_81\n      jump\t// in\n    tag_110:\n        /* \"#utility.yul\":1030:1118   */\n    tag_109:\n        /* \"#utility.yul\":1138:1148   */\n      dup1\n        /* \"#utility.yul\":1134:1136   */\n      0x40\n        /* \"#utility.yul\":1127:1149   */\n      mstore\n        /* \"#utility.yul\":917:1155   */\n      pop\n        /* \"#utility.yul\":874:1155   */\n      pop\n      pop\n      jump\t// out\n        /* \"#utility.yul\":1161:1290   */\n    tag_83:\n        /* \"#utility.yul\":1195:1201   */\n      0x00\n        /* \"#utility.yul\":1222:1242   */\n      tag_112\n      tag_75\n      jump\t// in\n    tag_112:\n        /* \"#utility.yul\":1212:1242   */\n      swap1\n      pop\n        /* \"#utility.yul\":1251:1284   */\n      tag_113\n        /* \"#utility.yul\":1279:1283   */\n      dup3\n        /* \"#utility.yul\":1271:1277   */\n      dup3\n        /* \"#utility.yul\":1251:1284   */\n      tag_82\n      jump\t// in\n    tag_113:\n        /* \"#utility.yul\":1161:1290   */\n      swap2\n      swap1\n      pop\n      jump\t// out\n        /* \"#utility.yul\":1296:1604   */\n    tag_84:\n        /* \"#utility.yul\":1358:1362   */\n      0x00\n        /* \"#utility.yul\":1448:1466   */\n      0xffffffffffffffff\n        /* \"#utility.yul\":1440:1446   */\n      dup3\n        /* \"#utility.yul\":1437:1467   */\n      gt\n        /* \"#utility.yul\":1434:1490   */\n      iszero\n      tag_115\n      jumpi\n        /* \"#utility.yul\":1470:1488   */\n      tag_116\n      tag_81\n      jump\t// in\n    tag_116:\n        /* \"#utility.yul\":1434:1490   */\n    tag_115:\n        /* \"#utility.yul\":1508:1537   */\n      tag_117\n        /* \"#utility.yul\":1530:1536   */\n      dup3\n        /* \"#utility.yul\":1508:1537   */\n      tag_80\n      jump\t// in\n    tag_117:\n        /* \"#utility.yul\":1500:1537   */\n      swap1\n      pop\n        /* \"#utility.yul\":1592:1596   */\n      0x20\n        /* \"#utility.yul\":1586:1590   */\n      dup2\n        /* \"#utility.yul\":1582:1597   */\n      add\n        /* \"#utility.yul\":1574:1597   */\n      swap1\n      pop\n        /* \"#utility.yul\":1296:1604   */\n      swap2\n      swap1\n      pop\n      jump\t// out\n        /* \"#utility.yul\":1610:1756   */\n    tag_85:\n        /* \"#utility.yul\":1707:1713   */\n      dup3\n        /* \"#utility.yul\":1702:1705   */\n      dup2\n        /* \"#utility.yul\":1697:1700   */\n      dup4\n        /* \"#utility.yul\":1684:1714   */\n      calldatacopy\n        /* \"#utility.yul\":1748:1749   */\n      0x00\n        /* \"#utility.yul\":1739:1745   */\n      dup4\n        /* \"#utility.yul\":1734:1737   */\n      dup4\n        /* \"#utility.yul\":1730:1746   */\n      add\n        /* \"#utility.yul\":1723:1750   */\n      mstore\n        /* \"#utility.yul\":1610:1756   */\n      pop\n      pop\n      pop\n      jump\t// out\n        /* \"#utility.yul\":1762:2187   */\n    tag_86:\n        /* \"#utility.yul\":1840:1845   */\n      0x00\n        /* \"#utility.yul\":1865:1931   */\n      tag_120\n        /* \"#utility.yul\":1881:1930   */\n      tag_121\n        /* \"#utility.yul\":1923:1929   */\n      dup5\n        /* \"#utility.yul\":1881:1930   */\n      tag_84\n      jump\t// in\n    tag_121:\n        /* \"#utility.yul\":1865:1931   */\n      tag_83\n      jump\t// in\n    tag_120:\n        /* \"#utility.yul\":1856:1931   */\n      swap1\n      pop\n        /* \"#utility.yul\":1954:1960   */\n      dup3\n        /* \"#utility.yul\":1947:1952   */\n      dup2\n        /* \"#utility.yul\":1940:1961   */\n      mstore\n        /* \"#utility.yul\":1992:1996   */\n      0x20\n        /* \"#utility.yul\":1985:1990   */\n      dup2\n        /* \"#utility.yul\":1981:1997   */\n      add\n        /* \"#utility.yul\":2030:2033   */\n      dup5\n        /* \"#utility.yul\":2021:2027   */\n      dup5\n        /* \"#utility.yul\":2016:2019   */\n      dup5\n        /* \"#utility.yul\":2012:2028   */\n      add\n        /* \"#utility.yul\":2009:2034   */\n      gt\n        /* \"#utility.yul\":2006:2118   */\n      iszero\n      tag_122\n      jumpi\n        /* \"#utility.yul\":2037:2116   */\n      tag_123\n      tag_79\n      jump\t// in\n    tag_123:\n        /* \"#utility.yul\":2006:2118   */\n    tag_122:\n        /* \"#utility.yul\":2127:2181   */\n      tag_124\n        /* \"#utility.yul\":2174:2180   */\n      dup5\n        /* \"#utility.yul\":2169:2172   */\n      dup3\n        /* \"#utility.yul\":2164:2167   */\n      dup6\n        /* \"#utility.yul\":2127:2181   */\n      tag_85\n      jump\t// in\n    tag_124:\n        /* \"#utility.yul\":1846:2187   */\n      pop\n        /* \"#utility.yul\":1762:2187   */\n      swap4\n      swap3\n      pop\n      pop\n      pop\n      jump\t// out\n        /* \"#utility.yul\":2207:2547   */\n    tag_87:\n        /* \"#utility.yul\":2263:2268   */\n      0x00\n        /* \"#utility.yul\":2312:2315   */\n      dup3\n        /* \"#utility.yul\":2305:2309   */\n      0x1f\n        /* \"#utility.yul\":2297:2303   */\n      dup4\n        /* \"#utility.yul\":2293:2310   */\n      add\n        /* \"#utility.yul\":2289:2316   */\n      slt\n        /* \"#utility.yul\":2279:2401   */\n      tag_126\n      jumpi\n        /* \"#utility.yul\":2320:2399   */\n      tag_127\n      tag_78\n      jump\t// in\n    tag_127:\n        /* \"#utility.yul\":2279:2401   */\n    tag_126:\n        /* \"#utility.yul\":2437:2443   */\n      dup2\n        /* \"#utility.yul\":2424:2444   */\n      calldataload\n        /* \"#utility.yul\":2462:2541   */\n      tag_128\n        /* \"#utility.yul\":2537:2540   */\n      dup5\n        /* \"#utility.yul\":2529:2535   */\n      dup3\n        /* \"#utility.yul\":2522:2526   */\n      0x20\n        /* \"#utility.yul\":2514:2520   */\n      dup7\n        /* \"#utility.yul\":2510:2527   */\n      add\n        /* \"#utility.yul\":2462:2541   */\n      tag_86\n      jump\t// in\n    tag_128:\n        /* \"#utility.yul\":2453:2541   */\n      swap2\n      pop\n        /* \"#utility.yul\":2269:2547   */\n      pop\n        /* \"#utility.yul\":2207:2547   */\n      swap3\n      swap2\n      pop\n      pop\n      jump\t// out\n        /* \"#utility.yul\":2553:3062   */\n    tag_14:\n        /* \"#utility.yul\":2622:2628   */\n      0x00\n        /* \"#utility.yul\":2671:2673   */\n      0x20\n        /* \"#utility.yul\":2659:2668   */\n      dup3\n        /* \"#utility.yul\":2650:2657   */\n      dup5\n        /* \"#utility.yul\":2646:2669   */\n      sub\n        /* \"#utility.yul\":2642:2674   */\n      slt\n        /* \"#utility.yul\":2639:2758   */\n      iszero\n      tag_130\n      jumpi\n        /* \"#utility.yul\":2677:2756   */\n      tag_131\n      tag_76\n      jump\t// in\n    tag_131:\n        /* \"#utility.yul\":2639:2758   */\n    tag_130:\n        /* \"#utility.yul\":2825:2826   */\n      0x00\n        /* \"#utility.yul\":2814:2823   */\n      dup3\n        /* \"#utility.yul\":2810:2827   */\n      add\n        /* \"#utility.yul\":2797:2828   */\n      calldataload\n        /* \"#utility.yul\":2855:2873   */\n      0xffffffffffffffff\n        /* \"#utility.yul\":2847:2853   */\n      dup2\n        /* \"#utility.yul\":2844:2874   */\n      gt\n        /* \"#utility.yul\":2841:2958   */\n      iszero\n      tag_132\n      jumpi\n        /* \"#utility.yul\":2877:2956   */\n      tag_133\n      tag_77\n      jump\t// in\n    tag_133:\n        /* \"#utility.yul\":2841:2958   */\n    tag_132:\n        /* \"#utility.yul\":2982:3045   */\n      tag_134\n        /* \"#utility.yul\":3037:3044   */\n      dup5\n        /* \"#utility.yul\":3028:3034   */\n      dup3\n        /* \"#utility.yul\":3017:3026   */\n      dup6\n        /* \"#utility.yul\":3013:3035   */\n      add\n        /* \"#utility.yul\":2982:3045   */\n      tag_87\n      jump\t// in\n    tag_134:\n        /* \"#utility.yul\":2972:3045   */\n      swap2\n      pop\n        /* \"#utility.yul\":2768:3055   */\n      pop\n        /* \"#utility.yul\":2553:3062   */\n      swap3\n      swap2\n      pop\n      pop\n      jump\t// out\n        /* \"#utility.yul\":3068:3158   */\n    tag_88:\n        /* \"#utility.yul\":3102:3109   */\n      0x00\n        /* \"#utility.yul\":3145:3150   */\n      dup2\n        /* \"#utility.yul\":3138:3151   */\n      iszero\n        /* \"#utility.yul\":3131:3152   */\n      iszero\n        /* \"#utility.yul\":3120:3152   */\n      swap1\n      pop\n        /* \"#utility.yul\":3068:3158   */\n      swap2\n      swap1\n      pop\n      jump\t// out\n        /* \"#utility.yul\":3164:3273   */\n    tag_89:\n        /* \"#utility.yul\":3245:3266   */\n      tag_137\n        /* \"#utility.yul\":3260:3265   */\n      dup2\n        /* \"#utility.yul\":3245:3266   */\n      tag_88\n      jump\t// in\n    tag_137:\n        /* \"#utility.yul\":3240:3243   */\n      dup3\n        /* \"#utility.yul\":3233:3267   */\n      mstore\n        /* \"#utility.yul\":3164:3273   */\n      pop\n      pop\n      jump\t// out\n        /* \"#utility.yul\":3279:3489   */\n    tag_17:\n        /* \"#utility.yul\":3366:3370   */\n      0x00\n        /* \"#utility.yul\":3404:3406   */\n      0x20\n        /* \"#utility.yul\":3393:3402   */\n      dup3\n        /* \"#utility.yul\":3389:3407   */\n      add\n        /* \"#utility.yul\":3381:3407   */\n      swap1\n      pop\n        /* \"#utility.yul\":3417:3482   */\n      tag_139\n        /* \"#utility.yul\":3479:3480   */\n      0x00\n        /* \"#utility.yul\":3468:3477   */\n      dup4\n        /* \"#utility.yul\":3464:3481   */\n      add\n        /* \"#utility.yul\":3455:3461   */\n      dup5\n        /* \"#utility.yul\":3417:3482   */\n      tag_89\n      jump\t// in\n    tag_139:\n        /* \"#utility.yul\":3279:3489   */\n      swap3\n      swap2\n      pop\n      pop\n      jump\t// out\n        /* \"#utility.yul\":3495:3621   */\n    tag_90:\n        /* \"#utility.yul\":3532:3539   */\n      0x00\n        /* \"#utility.yul\":3572:3614   */\n      0xffffffffffffffffffffffffffffffffffffffff\n        /* \"#utility.yul\":3565:3570   */\n      dup3\n        /* \"#utility.yul\":3561:3615   */\n      and\n        /* \"#utility.yul\":3550:3615   */\n      swap1\n      pop\n        /* \"#utility.yul\":3495:3621   */\n      swap2\n      swap1\n      pop\n      jump\t// out\n        /* \"#utility.yul\":3627:3723   */\n    tag_91:\n        /* \"#utility.yul\":3664:3671   */\n      0x00\n        /* \"#utility.yul\":3693:3717   */\n      tag_142\n        /* \"#utility.yul\":3711:3716   */\n      dup3\n        /* \"#utility.yul\":3693:3717   */\n      tag_90\n      jump\t// in\n    tag_142:\n        /* \"#utility.yul\":3682:3717   */\n      swap1\n      pop\n        /* \"#utility.yul\":3627:3723   */\n      swap2\n      swap1\n      pop\n      jump\t// out\n        /* \"#utility.yul\":3729:3847   */\n    tag_92:\n        /* \"#utility.yul\":3816:3840   */\n      tag_144\n        /* \"#utility.yul\":3834:3839   */\n      dup2\n        /* \"#utility.yul\":3816:3840   */\n      tag_91\n      jump\t// in\n    tag_144:\n        /* \"#utility.yul\":3811:3814   */\n      dup3\n        /* \"#utility.yul\":3804:3841   */\n      mstore\n        /* \"#utility.yul\":3729:3847   */\n      pop\n      pop\n      jump\t// out\n        /* \"#utility.yul\":3853:4075   */\n    tag_25:\n        /* \"#utility.yul\":3946:3950   */\n      0x00\n        /* \"#utility.yul\":3984:3986   */\n      0x20\n        /* \"#utility.yul\":3973:3982   */\n      dup3\n        /* \"#utility.yul\":3969:3987   */\n      add\n        /* \"#utility.yul\":3961:3987   */\n      swap1\n      pop\n        /* \"#utility.yul\":3997:4068   */\n      tag_146\n        /* \"#utility.yul\":4065:4066   */\n      0x00\n        /* \"#utility.yul\":4054:4063   */\n      dup4\n        /* \"#utility.yul\":4050:4067   */\n      add\n        /* \"#utility.yul\":4041:4047   */\n      dup5\n        /* \"#utility.yul\":3997:4068   */\n      tag_92\n      jump\t// in\n    tag_146:\n        /* \"#utility.yul\":3853:4075   */\n      swap3\n      swap2\n      pop\n      pop\n      jump\t// out\n        /* \"#utility.yul\":4081:4158   */\n    tag_93:\n        /* \"#utility.yul\":4118:4125   */\n      0x00\n        /* \"#utility.yul\":4147:4152   */\n      dup2\n        /* \"#utility.yul\":4136:4152   */\n      swap1\n      pop\n        /* \"#utility.yul\":4081:4158   */\n      swap2\n      swap1\n      pop\n      jump\t// out\n        /* \"#utility.yul\":4164:4282   */\n    tag_94:\n        /* \"#utility.yul\":4251:4275   */\n      tag_149\n        /* \"#utility.yul\":4269:4274   */\n      dup2\n        /* \"#utility.yul\":4251:4275   */\n      tag_93\n      jump\t// in\n    tag_149:\n        /* \"#utility.yul\":4246:4249   */\n      dup3\n        /* \"#utility.yul\":4239:4276   */\n      mstore\n        /* \"#utility.yul\":4164:4282   */\n      pop\n      pop\n      jump\t// out\n        /* \"#utility.yul\":4288:4510   */\n    tag_35:\n        /* \"#utility.yul\":4381:4385   */\n      0x00\n        /* \"#utility.yul\":4419:4421   */\n      0x20\n        /* \"#utility.yul\":4408:4417   */\n      dup3\n        /* \"#utility.yul\":4404:4422   */\n      add\n        /* \"#utility.yul\":4396:4422   */\n      swap1\n      pop\n        /* \"#utility.yul\":4432:4503   */\n      tag_151\n        /* \"#utility.yul\":4500:4501   */\n      0x00\n        /* \"#utility.yul\":4489:4498   */\n      dup4\n        /* \"#utility.yul\":4485:4502   */\n      add\n        /* \"#utility.yul\":4476:4482   */\n      dup5\n        /* \"#utility.yul\":4432:4503   */\n      tag_94\n      jump\t// in\n    tag_151:\n        /* \"#utility.yul\":4288:4510   */\n      swap3\n      swap2\n      pop\n      pop\n      jump\t// out\n        /* \"#utility.yul\":4516:4615   */\n    tag_95:\n        /* \"#utility.yul\":4568:4574   */\n      0x00\n        /* \"#utility.yul\":4602:4607   */\n      dup2\n        /* \"#utility.yul\":4596:4608   */\n      mload\n        /* \"#utility.yul\":4586:4608   */\n      swap1\n      pop\n        /* \"#utility.yul\":4516:4615   */\n      swap2\n      swap1\n      pop\n      jump\t// out\n        /* \"#utility.yul\":4621:4769   */\n    tag_96:\n        /* \"#utility.yul\":4723:4734   */\n      0x00\n        /* \"#utility.yul\":4760:4763   */\n      dup2\n        /* \"#utility.yul\":4745:4763   */\n      swap1\n      pop\n        /* \"#utility.yul\":4621:4769   */\n      swap3\n      swap2\n      pop\n      pop\n      jump\t// out\n        /* \"#utility.yul\":4775:5021   */\n    tag_97:\n        /* \"#utility.yul\":4856:4857   */\n      0x00\n        /* \"#utility.yul\":4866:4979   */\n    tag_155:\n        /* \"#utility.yul\":4880:4886   */\n      dup4\n        /* \"#utility.yul\":4877:4878   */\n      dup2\n        /* \"#utility.yul\":4874:4887   */\n      lt\n        /* \"#utility.yul\":4866:4979   */\n      iszero\n      tag_157\n      jumpi\n        /* \"#utility.yul\":4965:4966   */\n      dup1\n        /* \"#utility.yul\":4960:4963   */\n      dup3\n        /* \"#utility.yul\":4956:4967   */\n      add\n        /* \"#utility.yul\":4950:4968   */\n      mload\n        /* \"#utility.yul\":4946:4947   */\n      dup2\n        /* \"#utility.yul\":4941:4944   */\n      dup5\n        /* \"#utility.yul\":4937:4948   */\n      add\n        /* \"#utility.yul\":4930:4969   */\n      mstore\n        /* \"#utility.yul\":4902:4904   */\n      0x20\n        /* \"#utility.yul\":4899:4900   */\n      dup2\n        /* \"#utility.yul\":4895:4905   */\n      add\n        /* \"#utility.yul\":4890:4905   */\n      swap1\n      pop\n        /* \"#utility.yul\":4866:4979   */\n      jump(tag_155)\n    tag_157:\n        /* \"#utility.yul\":5013:5014   */\n      0x00\n        /* \"#utility.yul\":5004:5010   */\n      dup5\n        /* \"#utility.yul\":4999:5002   */\n      dup5\n        /* \"#utility.yul\":4995:5011   */\n      add\n        /* \"#utility.yul\":4988:5015   */\n      mstore\n        /* \"#utility.yul\":4837:5021   */\n      pop\n        /* \"#utility.yul\":4775:5021   */\n      pop\n      pop\n      pop\n      jump\t// out\n        /* \"#utility.yul\":5027:5417   */\n    tag_98:\n        /* \"#utility.yul\":5133:5136   */\n      0x00\n        /* \"#utility.yul\":5161:5200   */\n      tag_159\n        /* \"#utility.yul\":5194:5199   */\n      dup3\n        /* \"#utility.yul\":5161:5200   */\n      tag_95\n      jump\t// in\n    tag_159:\n        /* \"#utility.yul\":5216:5305   */\n      tag_160\n        /* \"#utility.yul\":5298:5304   */\n      dup2\n        /* \"#utility.yul\":5293:5296   */\n      dup6\n        /* \"#utility.yul\":5216:5305   */\n      tag_96\n      jump\t// in\n    tag_160:\n        /* \"#utility.yul\":5209:5305   */\n      swap4\n      pop\n        /* \"#utility.yul\":5314:5379   */\n      tag_161\n        /* \"#utility.yul\":5372:5378   */\n      dup2\n        /* \"#utility.yul\":5367:5370   */\n      dup6\n        /* \"#utility.yul\":5360:5364   */\n      0x20\n        /* \"#utility.yul\":5353:5358   */\n      dup7\n        /* \"#utility.yul\":5349:5365   */\n      add\n        /* \"#utility.yul\":5314:5379   */\n      tag_97\n      jump\t// in\n    tag_161:\n        /* \"#utility.yul\":5404:5410   */\n      dup1\n        /* \"#utility.yul\":5399:5402   */\n      dup5\n        /* \"#utility.yul\":5395:5411   */\n      add\n        /* \"#utility.yul\":5388:5411   */\n      swap2\n      pop\n        /* \"#utility.yul\":5137:5417   */\n      pop\n        /* \"#utility.yul\":5027:5417   */\n      swap3\n      swap2\n      pop\n      pop\n      jump\t// out\n        /* \"#utility.yul\":5423:5698   */\n    tag_50:\n        /* \"#utility.yul\":5555:5558   */\n      0x00\n        /* \"#utility.yul\":5577:5672   */\n      tag_163\n        /* \"#utility.yul\":5668:5671   */\n      dup3\n        /* \"#utility.yul\":5659:5665   */\n      dup5\n        /* \"#utility.yul\":5577:5672   */\n      tag_98\n      jump\t// in\n    tag_163:\n        /* \"#utility.yul\":5570:5672   */\n      swap2\n      pop\n        /* \"#utility.yul\":5689:5692   */\n      dup2\n        /* \"#utility.yul\":5682:5692   */\n      swap1\n      pop\n        /* \"#utility.yul\":5423:5698   */\n      swap3\n      swap2\n      pop\n      pop\n      jump\t// out\n\n    auxdata: 0xa264697066735822122076f28c06f11341351610ad37ff33fe58abcd12032400209dc4dc159503af92f164736f6c63430008110033\n}\n","bytecode":{"linkReferences":{},"object":"608060405234801561001057600080fd5b50604051610a08380380610a0883398181016040528101906100329190610121565b826000806101000a81548173ffffffffffffffffffffffffffffffffffffffff021916908373ffffffffffffffffffffffffffffffffffffffff1602179055508160018190555080600281905550505050610174565b600080fd5b600073ffffffffffffffffffffffffffffffffffffffff82169050919050565b60006100b88261008d565b9050919050565b6100c8816100ad565b81146100d357600080fd5b50565b6000815190506100e5816100bf565b92915050565b6000819050919050565b6100fe816100eb565b811461010957600080fd5b50565b60008151905061011b816100f5565b92915050565b60008060006060848603121561013a57610139610088565b5b6000610148868287016100d6565b93505060206101598682870161010c565b925050604061016a8682870161010c565b9150509250925092565b610885806101836000396000f3fe60806040526004361061007b5760003560e01c8063817772df1161004e578063817772df1461014157806398ebddec1461016c578063a075587c14610188578063ef7cb3bf146101a45761007b565b80631258c99c146100805780633cbf0c27146100bd578063481c6a75146100d957806378a54fb614610104575b600080fd5b34801561008c57600080fd5b506100a760048036038101906100a291906106b8565b6101cf565b6040516100b4919061071c565b60405180910390f35b6100d760048036038101906100d291906106b8565b61025d565b005b3480156100e557600080fd5b506100ee610320565b6040516100fb9190610778565b60405180910390f35b34801561011057600080fd5b5061012b600480360381019061012691906106b8565b610344565b604051610138919061071c565b60405180910390f35b34801561014d57600080fd5b506101566103d2565b60405161016391906107ac565b60405180910390f35b610186600480360381019061018191906106b8565b6103d8565b005b6101a2600480360381019061019d91906106b8565b6104d2565b005b3480156101b057600080fd5b506101b9610558565b6040516101c691906107ac565b60405180910390f35b60008060009054906101000a900473ffffffffffffffffffffffffffffffffffffffff1673ffffffffffffffffffffffffffffffffffffffff163373ffffffffffffffffffffffffffffffffffffffff161461022a57600080fd5b60038260405161023a9190610838565b908152602001604051809103902060009054906101000a900460ff169050919050565b60015434101561026c57600080fd5b600115156003826040516102809190610838565b908152602001604051809103902060009054906101000a900460ff16151515146102a957600080fd5b600115156004826040516102bd9190610838565b908152602001604051809103902060009054906101000a900460ff16151515146102e657600080fd5b60016004826040516102f89190610838565b908152602001604051809103902060006101000a81548160ff02191690831515021790555050565b60008054906101000a900473ffffffffffffffffffffffffffffffffffffffff1681565b60008060009054906101000a900473ffffffffffffffffffffffffffffffffffffffff1673ffffffffffffffffffffffffffffffffffffffff163373ffffffffffffffffffffffffffffffffffffffff161461039f57600080fd5b6004826040516103af9190610838565b908152602001604051809103902060009054906101000a900460ff169050919050565b60015481565b6002543410156103e757600080fd5b600115156003826040516103fb9190610838565b908152602001604051809103902060009054906101000a900460ff161515151461042457600080fd5b600115156004826040516104389190610838565b908152602001604051809103902060009054906101000a900460ff161515151461046157600080fd5b60016003826040516104739190610838565b908152602001604051809103902060006101000a81548160ff02191690831515021790555060016004826040516104aa9190610838565b908152602001604051809103902060006101000a81548160ff02191690831515021790555050565b6001543410156104e157600080fd5b600115156003826040516104f59190610838565b908152602001604051809103902060009054906101000a900460ff161515151461051e57600080fd5b60016003826040516105309190610838565b908152602001604051809103902060006101000a81548160ff02191690831515021790555050565b60025481565b6000604051905090565b600080fd5b600080fd5b600080fd5b600080fd5b6000601f19601f8301169050919050565b7f4e487b7100000000000000000000000000000000000000000000000000000000600052604160045260246000fd5b6105c58261057c565b810181811067ffffffffffffffff821117156105e4576105e361058d565b5b80604052505050565b60006105f761055e565b905061060382826105bc565b919050565b600067ffffffffffffffff8211156106235761062261058d565b5b61062c8261057c565b9050602081019050919050565b82818337600083830152505050565b600061065b61065684610608565b6105ed565b90508281526020810184848401111561067757610676610577565b5b610682848285610639565b509392505050565b600082601f83011261069f5761069e610572565b5b81356106af848260208601610648565b91505092915050565b6000602082840312156106ce576106cd610568565b5b600082013567ffffffffffffffff8111156106ec576106eb61056d565b5b6106f88482850161068a565b91505092915050565b60008115159050919050565b61071681610701565b82525050565b6000602082019050610731600083018461070d565b92915050565b600073ffffffffffffffffffffffffffffffffffffffff82169050919050565b600061076282610737565b9050919050565b61077281610757565b82525050565b600060208201905061078d6000830184610769565b92915050565b6000819050919050565b6107a681610793565b82525050565b60006020820190506107c1600083018461079d565b92915050565b600081519050919050565b600081905092915050565b60005b838110156107fb5780820151818401526020810190506107e0565b60008484015250505050565b6000610812826107c7565b61081c81856107d2565b935061082c8185602086016107dd565b80840191505092915050565b60006108448284610807565b91508190509291505056fea264697066735822122076f28c06f11341351610ad37ff33fe58abcd12032400209dc4dc159503af92f164736f6c63430008110033","opcodes":"PUSH1 0x80 PUSH1 0x40 MSTORE CALLVALUE DUP1 ISZERO PUSH2 0x10 JUMPI PUSH1 0x0 DUP1 REVERT JUMPDEST POP PUSH1 0x40 MLOAD PUSH2 0xA08 CODESIZE SUB DUP1 PUSH2 0xA08 DUP4 CODECOPY DUP2 DUP2 ADD PUSH1 0x40 MSTORE DUP2 ADD SWAP1 PUSH2 0x32 SWAP2 SWAP1 PUSH2 0x121 JUMP JUMPDEST DUP3 PUSH1 0x0 DUP1 PUSH2 0x100 EXP DUP2 SLOAD DUP2 PUSH20 0xFFFFFFFFFFFFFFFFFFFFFFFFFFFFFFFFFFFFFFFF MUL NOT AND SWAP1 DUP4 PUSH20 0xFFFFFFFFFFFFFFFFFFFFFFFFFFFFFFFFFFFFFFFF AND MUL OR SWAP1 SSTORE POP DUP2 PUSH1 0x1 DUP2 SWAP1 SSTORE POP DUP1 PUSH1 0x2 DUP2 SWAP1 SSTORE POP POP POP POP PUSH2 0x174 JUMP JUMPDEST PUSH1 0x0 DUP1 REVERT JUMPDEST PUSH1 0x0 PUSH20 0xFFFFFFFFFFFFFFFFFFFFFFFFFFFFFFFFFFFFFFFF DUP3 AND SWAP1 POP SWAP2 SWAP1 POP JUMP JUMPDEST PUSH1 0x0 PUSH2 0xB8 DUP3 PUSH2 0x8D JUMP JUMPDEST SWAP1 POP SWAP2 SWAP1 POP JUMP JUMPDEST PUSH2 0xC8 DUP2 PUSH2 0xAD JUMP JUMPDEST DUP2 EQ PUSH2 0xD3 JUMPI PUSH1 0x0 DUP1 REVERT JUMPDEST POP JUMP JUMPDEST PUSH1 0x0 DUP2 MLOAD SWAP1 POP PUSH2 0xE5 DUP2 PUSH2 0xBF JUMP JUMPDEST SWAP3 SWAP2 POP POP JUMP JUMPDEST PUSH1 0x0 DUP2 SWAP1 POP SWAP2 SWAP1 POP JUMP JUMPDEST PUSH2 0xFE DUP2 PUSH2 0xEB JUMP JUMPDEST DUP2 EQ PUSH2 0x109 JUMPI PUSH1 0x0 DUP1 REVERT JUMPDEST POP JUMP JUMPDEST PUSH1 0x0 DUP2 MLOAD SWAP1 POP PUSH2 0x11B DUP2 PUSH2 0xF5 JUMP JUMPDEST SWAP3 SWAP2 POP POP JUMP JUMPDEST PUSH1 0x0 DUP1 PUSH1 0x0 PUSH1 0x60 DUP5 DUP7 SUB SLT ISZERO PUSH2 0x13A JUMPI PUSH2 0x139 PUSH2 0x88 JUMP JUMPDEST JUMPDEST PUSH1 0x0 PUSH2 0x148 DUP7 DUP3 DUP8 ADD PUSH2 0xD6 JUMP JUMPDEST SWAP4 POP POP PUSH1 0x20 PUSH2 0x159 DUP7 DUP3 DUP8 ADD PUSH2 0x10C JUMP JUMPDEST SWAP3 POP POP PUSH1 0x40 PUSH2 0x16A DUP7 DUP3 DUP8 ADD PUSH2 0x10C JUMP JUMPDEST SWAP2 POP POP SWAP3 POP SWAP3 POP SWAP3 JUMP JUMPDEST PUSH2 0x885 DUP1 PUSH2 0x183 PUSH1 0x0 CODECOPY PUSH1 0x0 RETURN INVALID PUSH1 0x80 PUSH1 0x40 MSTORE PUSH1 0x4 CALLDATASIZE LT PUSH2 0x7B JUMPI PUSH1 0x0 CALLDATALOAD PUSH1 0xE0 SHR DUP1 PUSH4 0x817772DF GT PUSH2 0x4E JUMPI DUP1 PUSH4 0x817772DF EQ PUSH2 0x141 JUMPI DUP1 PUSH4 0x98EBDDEC EQ PUSH2 0x16C JUMPI DUP1 PUSH4 0xA075587C EQ PUSH2 0x188 JUMPI DUP1 PUSH4 0xEF7CB3BF EQ PUSH2 0x1A4 JUMPI PUSH2 0x7B JUMP JUMPDEST DUP1 PUSH4 0x1258C99C EQ PUSH2 0x80 JUMPI DUP1 PUSH4 0x3CBF0C27 EQ PUSH2 0xBD JUMPI DUP1 PUSH4 0x481C6A75 EQ PUSH2 0xD9 JUMPI DUP1 PUSH4 0x78A54FB6 EQ PUSH2 0x104 JUMPI JUMPDEST PUSH1 0x0 DUP1 REVERT JUMPDEST CALLVALUE DUP1 ISZERO PUSH2 0x8C JUMPI PUSH1 0x0 DUP1 REVERT JUMPDEST POP PUSH2 0xA7 PUSH1 0x4 DUP1 CALLDATASIZE SUB DUP2 ADD SWAP1 PUSH2 0xA2 SWAP2 SWAP1 PUSH2 0x6B8 JUMP JUMPDEST PUSH2 0x1CF JUMP JUMPDEST PUSH1 0x40 MLOAD PUSH2 0xB4 SWAP2 SWAP1 PUSH2 0x71C JUMP JUMPDEST PUSH1 0x40 MLOAD DUP1 SWAP2 SUB SWAP1 RETURN JUMPDEST PUSH2 0xD7 PUSH1 0x4 DUP1 CALLDATASIZE SUB DUP2 ADD SWAP1 PUSH2 0xD2 SWAP2 SWAP1 PUSH2 0x6B8 JUMP JUMPDEST PUSH2 0x25D JUMP JUMPDEST STOP JUMPDEST CALLVALUE DUP1 ISZERO PUSH2 0xE5 JUMPI PUSH1 0x0 DUP1 REVERT JUMPDEST POP PUSH2 0xEE PUSH2 0x320 JUMP JUMPDEST PUSH1 0x40 MLOAD PUSH2 0xFB SWAP2 SWAP1 PUSH2 0x778 JUMP JUMPDEST PUSH1 0x40 MLOAD DUP1 SWAP2 SUB SWAP1 RETURN JUMPDEST CALLVALUE DUP1 ISZERO PUSH2 0x110 JUMPI PUSH1 0x0 DUP1 REVERT JUMPDEST POP PUSH2 0x12B PUSH1 0x4 DUP1 CALLDATASIZE SUB DUP2 ADD SWAP1 PUSH2 0x126 SWAP2 SWAP1 PUSH2 0x6B8 JUMP JUMPDEST PUSH2 0x344 JUMP JUMPDEST PUSH1 0x40 MLOAD PUSH2 0x138 SWAP2 SWAP1 PUSH2 0x71C JUMP JUMPDEST PUSH1 0x40 MLOAD DUP1 SWAP2 SUB SWAP1 RETURN JUMPDEST CALLVALUE DUP1 ISZERO PUSH2 0x14D JUMPI PUSH1 0x0 DUP1 REVERT JUMPDEST POP PUSH2 0x156 PUSH2 0x3D2 JUMP JUMPDEST PUSH1 0x40 MLOAD PUSH2 0x163 SWAP2 SWAP1 PUSH2 0x7AC JUMP JUMPDEST PUSH1 0x40 MLOAD DUP1 SWAP2 SUB SWAP1 RETURN JUMPDEST PUSH2 0x186 PUSH1 0x4 DUP1 CALLDATASIZE SUB DUP2 ADD SWAP1 PUSH2 0x181 SWAP2 SWAP1 PUSH2 0x6B8 JUMP JUMPDEST PUSH2 0x3D8 JUMP JUMPDEST STOP JUMPDEST PUSH2 0x1A2 PUSH1 0x4 DUP1 CALLDATASIZE SUB DUP2 ADD SWAP1 PUSH2 0x19D SWAP2 SWAP1 PUSH2 0x6B8 JUMP JUMPDEST PUSH2 0x4D2 JUMP JUMPDEST STOP JUMPDEST CALLVALUE DUP1 ISZERO PUSH2 0x1B0 JUMPI PUSH1 0x0 DUP1 REVERT JUMPDEST POP PUSH2 0x1B9 PUSH2 0x558 JUMP JUMPDEST PUSH1 0x40 MLOAD PUSH2 0x1C6 SWAP2 SWAP1 PUSH2 0x7AC JUMP JUMPDEST PUSH1 0x40 MLOAD DUP1 SWAP2 SUB SWAP1 RETURN JUMPDEST PUSH1 0x0 DUP1 PUSH1 0x0 SWAP1 SLOAD SWAP1 PUSH2 0x100 EXP SWAP1 DIV PUSH20 0xFFFFFFFFFFFFFFFFFFFFFFFFFFFFFFFFFFFFFFFF AND PUSH20 0xFFFFFFFFFFFFFFFFFFFFFFFFFFFFFFFFFFFFFFFF AND CALLER PUSH20 0xFFFFFFFFFFFFFFFFFFFFFFFFFFFFFFFFFFFFFFFF AND EQ PUSH2 0x22A JUMPI PUSH1 0x0 DUP1 REVERT JUMPDEST PUSH1 0x3 DUP3 PUSH1 0x40 MLOAD PUSH2 0x23A SWAP2 SWAP1 PUSH2 0x838 JUMP JUMPDEST SWAP1 DUP2 MSTORE PUSH1 0x20 ADD PUSH1 0x40 MLOAD DUP1 SWAP2 SUB SWAP1 KECCAK256 PUSH1 0x0 SWAP1 SLOAD SWAP1 PUSH2 0x100 EXP SWAP1 DIV PUSH1 0xFF AND SWAP1 POP SWAP2 SWAP1 POP JUMP JUMPDEST PUSH1 0x1 SLOAD CALLVALUE LT ISZERO PUSH2 0x26C JUMPI PUSH1 0x0 DUP1 REVERT JUMPDEST PUSH1 0x1 ISZERO ISZERO PUSH1 0x3 DUP3 PUSH1 0x40 MLOAD PUSH2 0x280 SWAP2 SWAP1 PUSH2 0x838 JUMP JUMPDEST SWAP1 DUP2 MSTORE PUSH1 0x20 ADD PUSH1 0x40 MLOAD DUP1 SWAP2 SUB SWAP1 KECCAK256 PUSH1 0x0 SWAP1 SLOAD SWAP1 PUSH2 0x100 EXP SWAP1 DIV PUSH1 0xFF AND ISZERO ISZERO ISZERO EQ PUSH2 0x2A9 JUMPI PUSH1 0x0 DUP1 REVERT JUMPDEST PUSH1 0x1 ISZERO ISZERO PUSH1 0x4 DUP3 PUSH1 0x40 MLOAD PUSH2 0x2BD SWAP2 SWAP1 PUSH2 0x838 JUMP JUMPDEST SWAP1 DUP2 MSTORE PUSH1 0x20 ADD PUSH1 0x40 MLOAD DUP1 SWAP2 SUB SWAP1 KECCAK256 PUSH1 0x0 SWAP1 SLOAD SWAP1 PUSH2 0x100 EXP SWAP1 DIV PUSH1 0xFF AND ISZERO ISZERO ISZERO EQ PUSH2 0x2E6 JUMPI PUSH1 0x0 DUP1 REVERT JUMPDEST PUSH1 0x1 PUSH1 0x4 DUP3 PUSH1 0x40 MLOAD PUSH2 0x2F8 SWAP2 SWAP1 PUSH2 0x838 JUMP JUMPDEST SWAP1 DUP2 MSTORE PUSH1 0x20 ADD PUSH1 0x40 MLOAD DUP1 SWAP2 SUB SWAP1 KECCAK256 PUSH1 0x0 PUSH2 0x100 EXP DUP2 SLOAD DUP2 PUSH1 0xFF MUL NOT AND SWAP1 DUP4 ISZERO ISZERO MUL OR SWAP1 SSTORE POP POP JUMP JUMPDEST PUSH1 0x0 DUP1 SLOAD SWAP1 PUSH2 0x100 EXP SWAP1 DIV PUSH20 0xFFFFFFFFFFFFFFFFFFFFFFFFFFFFFFFFFFFFFFFF AND DUP2 JUMP JUMPDEST PUSH1 0x0 DUP1 PUSH1 0x0 SWAP1 SLOAD SWAP1 PUSH2 0x100 EXP SWAP1 DIV PUSH20 0xFFFFFFFFFFFFFFFFFFFFFFFFFFFFFFFFFFFFFFFF AND PUSH20 0xFFFFFFFFFFFFFFFFFFFFFFFFFFFFFFFFFFFFFFFF AND CALLER PUSH20 0xFFFFFFFFFFFFFFFFFFFFFFFFFFFFFFFFFFFFFFFF AND EQ PUSH2 0x39F JUMPI PUSH1 0x0 DUP1 REVERT JUMPDEST PUSH1 0x4 DUP3 PUSH1 0x40 MLOAD PUSH2 0x3AF SWAP2 SWAP1 PUSH2 0x838 JUMP JUMPDEST SWAP1 DUP2 MSTORE PUSH1 0x20 ADD PUSH1 0x40 MLOAD DUP1 SWAP2 SUB SWAP1 KECCAK256 PUSH1 0x0 SWAP1 SLOAD SWAP1 PUSH2 0x100 EXP SWAP1 DIV PUSH1 0xFF AND SWAP1 POP SWAP2 SWAP1 POP JUMP JUMPDEST PUSH1 0x1 SLOAD DUP2 JUMP JUMPDEST PUSH1 0x2 SLOAD CALLVALUE LT ISZERO PUSH2 0x3E7 JUMPI PUSH1 0x0 DUP1 REVERT JUMPDEST PUSH1 0x1 ISZERO ISZERO PUSH1 0x3 DUP3 PUSH1 0x40 MLOAD PUSH2 0x3FB SWAP2 SWAP1 PUSH2 0x838 JUMP JUMPDEST SWAP1 DUP2 MSTORE PUSH1 0x20 ADD PUSH1 0x40 MLOAD DUP1 SWAP2 SUB SWAP1 KECCAK256 PUSH1 0x0 SWAP1 SLOAD SWAP1 PUSH2 0x100 EXP SWAP1 DIV PUSH1 0xFF AND ISZERO ISZERO ISZERO EQ PUSH2 0x424 JUMPI PUSH1 0x0 DUP1 REVERT JUMPDEST PUSH1 0x1 ISZERO ISZERO PUSH1 0x4 DUP3 PUSH1 0x40 MLOAD PUSH2 0x438 SWAP2 SWAP1 PUSH2 0x838 JUMP JUMPDEST SWAP1 DUP2 MSTORE PUSH1 0x20 ADD PUSH1 0x40 MLOAD DUP1 SWAP2 SUB SWAP1 KECCAK256 PUSH1 0x0 SWAP1 SLOAD SWAP1 PUSH2 0x100 EXP SWAP1 DIV PUSH1 0xFF AND ISZERO ISZERO ISZERO EQ PUSH2 0x461 JUMPI PUSH1 0x0 DUP1 REVERT JUMPDEST PUSH1 0x1 PUSH1 0x3 DUP3 PUSH1 0x40 MLOAD PUSH2 0x473 SWAP2 SWAP1 PUSH2 0x838 JUMP JUMPDEST SWAP1 DUP2 MSTORE PUSH1 0x20 ADD PUSH1 0x40 MLOAD DUP1 SWAP2 SUB SWAP1 KECCAK256 PUSH1 0x0 PUSH2 0x100 EXP DUP2 SLOAD DUP2 PUSH1 0xFF MUL NOT AND SWAP1 DUP4 ISZERO ISZERO MUL OR SWAP1 SSTORE POP PUSH1 0x1 PUSH1 0x4 DUP3 PUSH1 0x40 MLOAD PUSH2 0x4AA SWAP2 SWAP1 PUSH2 0x838 JUMP JUMPDEST SWAP1 DUP2 MSTORE PUSH1 0x20 ADD PUSH1 0x40 MLOAD DUP1 SWAP2 SUB SWAP1 KECCAK256 PUSH1 0x0 PUSH2 0x100 EXP DUP2 SLOAD DUP2 PUSH1 0xFF MUL NOT AND SWAP1 DUP4 ISZERO ISZERO MUL OR SWAP1 SSTORE POP POP JUMP JUMPDEST PUSH1 0x1 SLOAD CALLVALUE LT ISZERO PUSH2 0x4E1 JUMPI PUSH1 0x0 DUP1 REVERT JUMPDEST PUSH1 0x1 ISZERO ISZERO PUSH1 0x3 DUP3 PUSH1 0x40 MLOAD PUSH2 0x4F5 SWAP2 SWAP1 PUSH2 0x838 JUMP JUMPDEST SWAP1 DUP2 MSTORE PUSH1 0x20 ADD PUSH1 0x40 MLOAD DUP1 SWAP2 SUB SWAP1 KECCAK256 PUSH1 0x0 SWAP1 SLOAD SWAP1 PUSH2 0x100 EXP SWAP1 DIV PUSH1 0xFF AND ISZERO ISZERO ISZERO EQ PUSH2 0x51E JUMPI PUSH1 0x0 DUP1 REVERT JUMPDEST PUSH1 0x1 PUSH1 0x3 DUP3 PUSH1 0x40 MLOAD PUSH2 0x530 SWAP2 SWAP1 PUSH2 0x838 JUMP JUMPDEST SWAP1 DUP2 MSTORE PUSH1 0x20 ADD PUSH1 0x40 MLOAD DUP1 SWAP2 SUB SWAP1 KECCAK256 PUSH1 0x0 PUSH2 0x100 EXP DUP2 SLOAD DUP2 PUSH1 0xFF MUL NOT AND SWAP1 DUP4 ISZERO ISZERO MUL OR SWAP1 SSTORE POP POP JUMP JUMPDEST PUSH1 0x2 SLOAD DUP2 JUMP JUMPDEST PUSH1 0x0 PUSH1 0x40 MLOAD SWAP1 POP SWAP1 JUMP JUMPDEST PUSH1 0x0 DUP1 REVERT JUMPDEST PUSH1 0x0 DUP1 REVERT JUMPDEST PUSH1 0x0 DUP1 REVERT JUMPDEST PUSH1 0x0 DUP1 REVERT JUMPDEST PUSH1 0x0 PUSH1 0x1F NOT PUSH1 0x1F DUP4 ADD AND SWAP1 POP SWAP2 SWAP1 POP JUMP JUMPDEST PUSH32 0x4E487B7100000000000000000000000000000000000000000000000000000000 PUSH1 0x0 MSTORE PUSH1 0x41 PUSH1 0x4 MSTORE PUSH1 0x24 PUSH1 0x0 REVERT JUMPDEST PUSH2 0x5C5 DUP3 PUSH2 0x57C JUMP JUMPDEST DUP2 ADD DUP2 DUP2 LT PUSH8 0xFFFFFFFFFFFFFFFF DUP3 GT OR ISZERO PUSH2 0x5E4 JUMPI PUSH2 0x5E3 PUSH2 0x58D JUMP JUMPDEST JUMPDEST DUP1 PUSH1 0x40 MSTORE POP POP POP JUMP JUMPDEST PUSH1 0x0 PUSH2 0x5F7 PUSH2 0x55E JUMP JUMPDEST SWAP1 POP PUSH2 0x603 DUP3 DUP3 PUSH2 0x5BC JUMP JUMPDEST SWAP2 SWAP1 POP JUMP JUMPDEST PUSH1 0x0 PUSH8 0xFFFFFFFFFFFFFFFF DUP3 GT ISZERO PUSH2 0x623 JUMPI PUSH2 0x622 PUSH2 0x58D JUMP JUMPDEST JUMPDEST PUSH2 0x62C DUP3 PUSH2 0x57C JUMP JUMPDEST SWAP1 POP PUSH1 0x20 DUP2 ADD SWAP1 POP SWAP2 SWAP1 POP JUMP JUMPDEST DUP3 DUP2 DUP4 CALLDATACOPY PUSH1 0x0 DUP4 DUP4 ADD MSTORE POP POP POP JUMP JUMPDEST PUSH1 0x0 PUSH2 0x65B PUSH2 0x656 DUP5 PUSH2 0x608 JUMP JUMPDEST PUSH2 0x5ED JUMP JUMPDEST SWAP1 POP DUP3 DUP2 MSTORE PUSH1 0x20 DUP2 ADD DUP5 DUP5 DUP5 ADD GT ISZERO PUSH2 0x677 JUMPI PUSH2 0x676 PUSH2 0x577 JUMP JUMPDEST JUMPDEST PUSH2 0x682 DUP5 DUP3 DUP6 PUSH2 0x639 JUMP JUMPDEST POP SWAP4 SWAP3 POP POP POP JUMP JUMPDEST PUSH1 0x0 DUP3 PUSH1 0x1F DUP4 ADD SLT PUSH2 0x69F JUMPI PUSH2 0x69E PUSH2 0x572 JUMP JUMPDEST JUMPDEST DUP2 CALLDATALOAD PUSH2 0x6AF DUP5 DUP3 PUSH1 0x20 DUP7 ADD PUSH2 0x648 JUMP JUMPDEST SWAP2 POP POP SWAP3 SWAP2 POP POP JUMP JUMPDEST PUSH1 0x0 PUSH1 0x20 DUP3 DUP5 SUB SLT ISZERO PUSH2 0x6CE JUMPI PUSH2 0x6CD PUSH2 0x568 JUMP JUMPDEST JUMPDEST PUSH1 0x0 DUP3 ADD CALLDATALOAD PUSH8 0xFFFFFFFFFFFFFFFF DUP2 GT ISZERO PUSH2 0x6EC JUMPI PUSH2 0x6EB PUSH2 0x56D JUMP JUMPDEST JUMPDEST PUSH2 0x6F8 DUP5 DUP3 DUP6 ADD PUSH2 0x68A JUMP JUMPDEST SWAP2 POP POP SWAP3 SWAP2 POP POP JUMP JUMPDEST PUSH1 0x0 DUP2 ISZERO ISZERO SWAP1 POP SWAP2 SWAP1 POP JUMP JUMPDEST PUSH2 0x716 DUP2 PUSH2 0x701 JUMP JUMPDEST DUP3 MSTORE POP POP JUMP JUMPDEST PUSH1 0x0 PUSH1 0x20 DUP3 ADD SWAP1 POP PUSH2 0x731 PUSH1 0x0 DUP4 ADD DUP5 PUSH2 0x70D JUMP JUMPDEST SWAP3 SWAP2 POP POP JUMP JUMPDEST PUSH1 0x0 PUSH20 0xFFFFFFFFFFFFFFFFFFFFFFFFFFFFFFFFFFFFFFFF DUP3 AND SWAP1 POP SWAP2 SWAP1 POP JUMP JUMPDEST PUSH1 0x0 PUSH2 0x762 DUP3 PUSH2 0x737 JUMP JUMPDEST SWAP1 POP SWAP2 SWAP1 POP JUMP JUMPDEST PUSH2 0x772 DUP2 PUSH2 0x757 JUMP JUMPDEST DUP3 MSTORE POP POP JUMP JUMPDEST PUSH1 0x0 PUSH1 0x20 DUP3 ADD SWAP1 POP PUSH2 0x78D PUSH1 0x0 DUP4 ADD DUP5 PUSH2 0x769 JUMP JUMPDEST SWAP3 SWAP2 POP POP JUMP JUMPDEST PUSH1 0x0 DUP2 SWAP1 POP SWAP2 SWAP1 POP JUMP JUMPDEST PUSH2 0x7A6 DUP2 PUSH2 0x793 JUMP JUMPDEST DUP3 MSTORE POP POP JUMP JUMPDEST PUSH1 0x0 PUSH1 0x20 DUP3 ADD SWAP1 POP PUSH2 0x7C1 PUSH1 0x0 DUP4 ADD DUP5 PUSH2 0x79D JUMP JUMPDEST SWAP3 SWAP2 POP POP JUMP JUMPDEST PUSH1 0x0 DUP2 MLOAD SWAP1 POP SWAP2 SWAP1 POP JUMP JUMPDEST PUSH1 0x0 DUP2 SWAP1 POP SWAP3 SWAP2 POP POP JUMP JUMPDEST PUSH1 0x0 JUMPDEST DUP4 DUP2 LT ISZERO PUSH2 0x7FB JUMPI DUP1 DUP3 ADD MLOAD DUP2 DUP5 ADD MSTORE PUSH1 0x20 DUP2 ADD SWAP1 POP PUSH2 0x7E0 JUMP JUMPDEST PUSH1 0x0 DUP5 DUP5 ADD MSTORE POP POP POP POP JUMP JUMPDEST PUSH1 0x0 PUSH2 0x812 DUP3 PUSH2 0x7C7 JUMP JUMPDEST PUSH2 0x81C DUP2 DUP6 PUSH2 0x7D2 JUMP JUMPDEST SWAP4 POP PUSH2 0x82C DUP2 DUP6 PUSH1 0x20 DUP7 ADD PUSH2 0x7DD JUMP JUMPDEST DUP1 DUP5 ADD SWAP2 POP POP SWAP3 SWAP2 POP POP JUMP JUMPDEST PUSH1 0x0 PUSH2 0x844 DUP3 DUP5 PUSH2 0x807 JUMP JUMPDEST SWAP2 POP DUP2 SWAP1 POP SWAP3 SWAP2 POP POP JUMP INVALID LOG2 PUSH5 0x6970667358 0x22 SLT KECCAK256 PUSH23 0xF28C06F11341351610AD37FF33FE58ABCD12032400209D 0xC4 0xDC ISZERO SWAP6 SUB 0xAF SWAP3 CALL PUSH5 0x736F6C6343 STOP ADDMOD GT STOP CALLER "},"gasEstimates":{"creation":{"codeDepositCost":"436200","executionCost":"infinite","totalCost":"infinite"},"external":{"isFirstbuyer(string)":"infinite","isSecondbuyer(string)":"infinite","manager()":"2556","minimumAllContribution()":"2495","minimumHalfContribution()":"2429","registerAllBuyer(string)":"infinite","registerFirstBuyer(string)":"infinite","registerSecondBuyer(string)":"infinite"}},"methodIdentifiers":{"isFirstbuyer(string)":"1258c99c","isSecondbuyer(string)":"78a54fb6","manager()":"481c6a75","minimumAllContribution()":"ef7cb3bf","minimumHalfContribution()":"817772df","registerAllBuyer(string)":"98ebddec","registerFirstBuyer(string)":"a075587c","registerSecondBuyer(string)":"3cbf0c27"}},"storageLayout":{"storage":[{"astId":3,"contract":"contract.sol:Register","label":"manager","offset":0,"slot":"0","type":"t_address"},{"astId":5,"contract":"contract.sol:Register","label":"minimumHalfContribution","offset":0,"slot":"1","type":"t_uint256"},{"astId":7,"contract":"contract.sol:Register","label":"minimumAllContribution","offset":0,"slot":"2","type":"t_uint256"},{"astId":11,"contract":"contract.sol:Register","label":"firstBuyers","offset":0,"slot":"3","type":"t_mapping(t_string_memory_ptr,t_bool)"},{"astId":15,"contract":"contract.sol:Register","label":"secondBuyers","offset":0,"slot":"4","type":"t_mapping(t_string_memory_ptr,t_bool)"}],"types":{"t_address":{"encoding":"inplace","label":"address","numberOfBytes":"20"},"t_bool":{"encoding":"inplace","label":"bool","numberOfBytes":"1"},"t_mapping(t_string_memory_ptr,t_bool)":{"encoding":"mapping","key":"t_string_memory_ptr","label":"mapping(string => bool)","numberOfBytes":"32","value":"t_bool"},"t_string_memory_ptr":{"encoding":"bytes","label":"string","numberOfBytes":"32"},"t_uint256":{"encoding":"inplace","label":"uint256","numberOfBytes":"32"}}},"userdoc":{"kind":"user","methods":{},"version":1}}